:020000040800F2
:1000000078060020790200080518000899160008F3
:100010000118000881030008011A00080000000010
:10002000000000000000000000000000151900089A
:100030008503000800000000751800086D1900080D
:10004000930200089302000893020008930200083C
:10005000930200089302000893020008930200082C
:10006000930200089302000893020008930200081C
:10007000930200089302000893020008930200080C
:100080009302000800000000930200089302000899
:1000900093020008930200089302000893020008EC
:1000A00093020008930200089302000893020008DC
:1000B00093020008930200089302000893020008CC
:1000C00093020008930200089302000893020008BC
:1000D00093020008930200089302000893020008AC
:1000E000930200089302000893020008930200089C
:1000F0009302000893020008930200080000000029
:1001000000000000930200080000000093020008B5
:100110009302000800000000930200089302000808
:10012000930200089302000893020008930200085B
:100130009302000800000000000000009302000885
:100140009302000893020008000000000000000075
:10015000000000000000000000000000000000009F
:1001600000000000000000000000000093020008F2
:1001700093020008000000000000000000000000E2
:1001800000000000930200080000000000000000D2
:10019000000000000000000000000000000000005F
:1001A0000000000000000000930200089302000815
:1001B0009302000893020008930200080000000068
:1001C0000000000093020008000000000000000092
:1001D000930200089302000800F002F800F03CF8D7
:1001E0000AA090E8000C82448344AAF10107DA4592
:1001F00001D100F031F8AFF2090EBAE80F0013F0A8
:10020000010F18BFFB1A43F001031847F018000054
:1002100010190000103A24BF78C878C1FAD85207E4
:1002200024BF30C830C144BF04680C607047000070
:100230000023002400250026103A28BF78C1FBD8EF
:10024000520728BF30C148BF0B6070471FB501F08F
:1002500040FC1FBD10B510BD00F058F81146FFF767
:10026000F5FF01F017FC00F076F803B4FFF7F2FF9A
:1002700003BC00F07DF800000948804709480047AA
:10028000FEE7FEE7FEE7FEE7FEE7FEE7FEE7FEE746
:10029000FEE7FEE704480549054A064B70470000A3
:1002A000ED190008D9010008780000207806002028
:1002B00078020020780200204FF0000200B51346BB
:1002C00094469646203922BFA0E80C50A0E80C5076
:1002D000B1F12001BFF4F7AF090728BFA0E80C5027
:1002E00048BF0CC05DF804EB890028BF40F8042B20
:1002F00008BF704748BF20F8022B11F0804F18BF8D
:1003000000F8012B7047704770477047754600F042
:100310002BF8AE4605006946534620F00700854697
:1003200018B020B5FFF7B6FFBDE820404FF000063B
:100330004FF000074FF000084FF0000BAC46ACE860
:10034000C009ACE8C009ACE8C009ACE8C00921F0BC
:1003500007018D46704710B50446AFF30080204674
:10036000BDE81040FFF781BF004870471000002033
:1003700001491820ABBEFEE72600020070470000CE
:10038000FFE7FEE77047000081B0EFF3108072B620
:100390000090FFE7FEE7000080B584B0039000F016
:1003A000E9F90290039801900198013048B1FFE704
:1003B00040F20400C2F20000016801980844019074
:1003C000FFE7FFE700F0D6F90299401A0199884249
:1003D00001D2FFE7F6E704B080BD00008BB00A90C1
:1003E000099100200890FFE7099800680899C84023
:1003F000002800F0A681FFE709980068089A01210B
:100400009140084007900798002800F09681FFE788
:100410000998406801280FD0FFE709984068022832
:100420000AD0FFE709984068112805D0FFE709982E
:10043000406812282FD1FFE70A9880680690089834
:100440004100032000FA01F10698884306900998BC
:10045000C0680899490000FA01F10698084306901F
:1004600006980A9988600A984068069008990120C1
:1004700000FA01F106988843069009984068C0F395
:100480000010089900FA01F10698084306900698B2
:100490000A994860FFE70A98C068069008984100EA
:1004A000032000FA01F106988843069009988068B5
:1004B0000899490000FA01F1069808430690069849
:1004C0000A99C86009984068022805D0FFE7099892
:1004D0004068122826D1FFE70A9808996FF00302B6
:1004E00002EA51010844006A0690089800F00700EB
:1004F00081000F2000FA01F10698884306900998C0
:100500000069089901F00701890000FA01F10698D5
:100510000843069006980A99089B02EA5302114480
:100520000862FFE70A9800680690089841000320D7
:1005300000FA01F10698884306900998406800F097
:1005400003000899490000FA01F106980843069053
:1005500006980A9908600998C079C006002840F1F9
:10056000EB80FFE7FFE741F26000C4F202000168A0
:1005700041F001010160006800F00100059005985C
:10058000FFE7089820F003000821C4F20101405859
:100590000690089800F0030081000F2000FA01F196
:1005A0000698884306900A98B0F1904F03D1FFE770
:1005B0000020049042E00A9840F20041C4F6000195
:1005C000884203D1FFE70120039034E00A9840F607
:1005D0000001C4F60001884203D1FFE70220029027
:1005E00026E00A9840F60041C4F60001884203D193
:1005F000FFE70320019018E00A9841F20001C4F6D9
:100600000001884203D1FFE7042000900AE00A9924
:1006100041F20042C4F600020620914208BF0520C4
:100620000090FFE700980190FFE701980290FFE734
:1006300002980390FFE703980490FFE70498089955
:1006400001F00301890000FA01F1069808430690C1
:100650000698089921F003010822C4F2010288508B
:1006600040F20040C4F20100006806900799069825
:100670008843069009988079C00728B1FFE7079959
:10068000069808430690FFE7069840F20041C4F23E
:100690000101086040F20440C4F2010000680690C5
:1006A0000799069888430690099880798007002862
:1006B00005D5FFE70799069808430690FFE70698D7
:1006C00040F20441C4F20101086040F20840C4F263
:1006D00001000068069007990698884306900998DB
:1006E0008079C006002805D5FFE7079906980843DA
:1006F0000690FFE7069840F20841C4F20101086045
:1007000040F20C40C4F20100006806900799069878
:1007100088430690099880798006002805D5FFE770
:100720000799069808430690FFE7069840F20C41A7
:10073000C4F201010860FFE7FFE708980130089064
:1007400052E60BB07047000082B00190ADF8021085
:100750008DF801209DF8010028B1FFE7BDF80200E7
:100760000199886104E0BDF8020001998862FFE701
:1007700002B0704740F27000C2F20000006870479B
:1007800040F20400C2F20000026840F27001C2F2BE
:1007900000010868104408607047000080B582B00E
:1007A00000208DF80700032000F090F80F2000F0E3
:1007B0000DF820B1FFE701208DF8070002E000F0FE
:1007C00049F8FFE79DF8070002B080BD80B582B010
:1007D000019000208DF8030040F20400C2F20000F6
:1007E000006878B3FFE740F20000C2F20000006842
:1007F00040F20401C2F200010A684FF47A71B1FBC1
:10080000F2F1B0FBF1F000F03FFFB0B9FFE7019863
:100810000F280DD8FFE701994FF0FF30002200F0BC
:100820003DF8019840F20801C2F20001086003E0BF
:1008300001208DF80300FFE703E001208DF803009D
:10084000FFE703E001208DF80300FFE79DF80300B8
:1008500002B080BD80B582B0FFE741F26000C4F213
:100860000200016841F001010160006800F0010030
:1008700001900198FFE7FFE741F25800C4F202003F
:10088000016841F080510160006800F080500090E4
:100890000098FFE700F0FCF802B080BD80B586B09C
:1008A0008DF817000491039201F0ACF802909DF9C5
:1008B0001700019002980499039A00F0A5FF0146E1
:1008C000019801F0A7F806B080BD000080B582B0A5
:1008D0000190019801F0C0F802B080BD85B003908E
:1008E000039800285ED1FFE747F20000C4F2000041
:1008F000006800F4C060B0F5806F49D1FFE747F2AF
:100900008001C4F20001086820F48070086047F29A
:100910000002C4F200021168012060F34A21116054
:1009200040F20001C2F200010968322251434DF643
:100930008362C4F21B32A1FB022100EB91400290C2
:10094000FFE747F21400C4F20000016800204905E7
:100950000029019006D5FFE70298002818BF012062
:100960000190FFE70198C00720B1FFE70298013826
:100970000290E6E747F21400C4F200000068400568
:10098000002804D5FFE703208DF813007CE008E081
:1009900047F28001C4F20001086820F4807008600A
:1009A000FFE76DE00398B0F5007F5ED1FFE747F207
:1009B0000000C4F20000006800F4C060B0F5806F71
:1009C00049D1FFE747F28001C4F20001086840F412
:1009D0008070086047F20002C4F200021168012032
:1009E00060F34A21116040F20001C2F2000109687F
:1009F000322251434DF68362C4F21B32A1FB022125
:100A000000EB91400290FFE747F21400C4F20000AF
:100A10000168002049050029009006D5FFE70298EB
:100A2000002818BF01200090FFE70098C00720B100
:100A3000FFE7029801380290E6E747F21400C4F29B
:100A4000000000684005002804D5FFE703208DF86A
:100A5000130019E008E047F28001C4F200010868C1
:100A600040F480700860FFE709E047F20001C4F23B
:100A700000010868022262F34A200860FFE7FFE7EE
:100A800000208DF81300FFE79DF8130005B07047B4
:100A900047F20801C4F20001086840F48040086091
:100AA0007047000080B586B004900391002000904C
:100AB000049820B9FFE701208DF8170081E1039821
:100AC00042F20001C4F20201096801F00F018842FC
:100AD00016D9FFE742F20000C4F20200016821F0DB
:100AE0000F01039A11430160006800F00F000399A1
:100AF000884204D0FFE701208DF8170061E1FFE78D
:100B000004980078C007002800F0A380FFE704984D
:100B10004068032839D1FFE741F20000C4F2020027
:100B200000688001002804D4FFE701208DF8170039
:100B300047E100F0A1FE019001984BF20141C0F2A3
:100B4000C441884220D3FFE741F20800C4F202000A
:100B5000006810F0F00F0AD0FFE7049800788007D3
:100B6000002810D5FFE70498806860B9FFE741F2DC
:100B70000801C4F202010868082262F30710086045
:100B800080200090FFE7FFE738E0049840680228E3
:100B90000ED1FFE741F20000C4F2020000688003BA
:100BA000002804D4FFE701208DF8170009E10DE0CB
:100BB00041F20000C4F2020000684005002804D49D
:100BC000FFE701208DF81700FBE0FFE700F0FEF8DB
:100BD000019001984BF20141C0F2C44188420CD30C
:100BE000FFE741F20801C4F202010868082262F33B
:100BF0000710086080200090FFE7FFE741F208013E
:100C0000C4F20201086820F00300049A52681043FD
:100C10000860FFF7AFFD0290FFE741F20800C4F261
:100C20000200006800F00C0004994968B0EB810FE5
:100C30000ED0FFE7FFF79EFD0299401A41F289317D
:100C4000884204D3FFE703208DF81700B9E0E4E7FA
:100C5000FFE704980078800700282CD5FFE7049868
:100C600000784007002809D5FFE741F20801C4F2E7
:100C70000201086840F4E0600860FFE7049800782B
:100C8000000700280BD5FFE741F20801C4F202017A
:100C9000086840F4E06020F460500860FFE741F22B
:100CA0000801C4F20201086820F0F000049A92687A
:100CB000104308600DE00098802809D1FFE741F259
:100CC0000801C4F20201086820F0F0000860FFE7A4
:100CD000FFE7039842F20001C4F20201096801F043
:100CE0000F01884228D2FFE742F20001C4F202015C
:100CF000086820F00F00039A10430860FFF73AFDE0
:100D00000290FFE742F20000C4F20200006800F027
:100D10000F00039988420ED0FFE7FFF72BFD0299E1
:100D2000401A41F28931884204D3FFE703208DF84D
:100D3000170046E0E6E7FFE7049800784007002840
:100D40000CD5FFE741F20801C4F20201086820F463
:100D5000E060049AD26810430860FFE704980078C6
:100D6000000700280DD5FFE741F20801C4F2020197
:100D7000086820F46050049A126940EAC2000860D2
:100D8000FFE700F023F841F20801C4F2020109680C
:100D9000C9B20A0941F6EC21C0F60001895C01F0F4
:100DA0001F01C84040F20001C2F20001086040F299
:100DB0000800C2F200000068FFF708FD8DF8170078
:100DC000FFE79DF8170006B080BD000086B041F235
:100DD0000800C4F20200006800F00C00042806D1EC
:100DE000FFE742F20040C0F2F400019069E041F2F6
:100DF0000800C4F20200006800F00C00082806D1C8
:100E0000FFE747F64000C0F27D10019058E041F244
:100E10000800C4F20200006800F00C000C284BD15E
:100E2000FFE741F20C00C4F20200016801F0030187
:100E300004910068C1B2012000EB111002900498E7
:100E40000090022815D0FFE70098032812D1FFE791
:100E5000029947F64000C0F27D10B0FBF1F041F27C
:100E60000C01C4F202010968C1F306214843059050
:100E700011E0FFE7029942F20040C0F2F400B0FB3B
:100E8000F1F041F20C01C4F202010968C1F306213C
:100E900048430590FFE741F20C00C4F202000068ED
:100EA00000F0C061022000EB1160039005980399E7
:100EB000B0FBF1F0019002E000200190FFE7FFE7B6
:100EC000FFE7019806B07047B0B588B00690069865
:100ED00020B9FFE701208DF81F00D0E306980078C5
:100EE000C007002800F09B80FFE741F20800C4F231
:100EF0000200006800F00C00049041F20C00C4F203
:100F00000200006800F00300039004980C2804D14C
:100F1000FFE70398032804D0FFE70498082812D1BC
:100F2000FFE741F20000C4F20200006880030028DD
:100F300008D5FFE70698406820B9FFE701208DF843
:100F40001F009CE36AE0FFE706984068B0F5803F29
:100F500009D1FFE741F20001C4F20201086840F440
:100F60008030086020E006984068B0F5A02F0DD1D1
:100F7000FFE741F20001C4F20201086840F480205A
:100F80000860086840F4803008600CE041F200011D
:100F9000C4F20201086820F480300860086820F478
:100FA00080200860FFE7FFE7FFE706984068D0B1C0
:100FB000FFE7FFF7DFFB0590FFE741F20000C4F217
:100FC00002000068800300280CD4FFE7FFF7D2FB83
:100FD0000599401A652804D3FFE703208DF81F0008
:100FE0004DE3EAE719E0FFF7C5FB0590FFE741F2A3
:100FF0000000C4F202000068800300280CD5FFE75F
:10100000FFF7B8FB0599401A652804D3FFE70320D2
:101010008DF81F0033E3EAE7FFE7FFE7FFE70698F5
:1010200000788007002840F19F80FFE741F2080028
:10103000C4F20200006800F00C00049041F20C00C1
:10104000C4F20200006800F00300039004980C282A
:1010500004D1FFE70398022804D0FFE7049804288E
:101060002CD1FFE741F20000C4F202000068400505
:10107000002808D5FFE70698C06820B9FFE70120DF
:101080008DF81F00FBE241F20401C4F2020108687E
:1010900020F0FE40069A126940EA0260086040F2C1
:1010A0000800C2F200000068FFF790FB20B1FFE7E4
:1010B00001208DF81F00E2E2FFE754E00698C068C7
:1010C00070B3FFE741F20001C4F20201086840F486
:1010D00080700860FFF74EFB0590FFE741F20000CB
:1010E000C4F202000068400500280CD4FFE7FFF7B7
:1010F00041FB0599401A032804D3FFE703208DF82C
:101100001F00BCE2EAE741F20401C4F202010868F0
:1011100020F0FE40069A126940EA0260086021E071
:1011200041F20001C4F20201086820F480700860F6
:10113000FFF720FB0590FFE741F20000C4F2020038
:101140000068400500280CD5FFE7FFF713FB059961
:10115000401A032804D3FFE703208DF81F008EE216
:10116000EAE7FFE7FFE7FFE70698007800070028B7
:1011700049D5FFE70698406910B3FFE741F29401B3
:10118000C4F20201086840F001000860FFF7F2FABB
:101190000590FFE741F29400C4F202000068800766
:1011A00000280CD4FFE7FFF7E5FA0599401A032859
:1011B00004D3FFE703208DF81F0060E2EAE721E097
:1011C00041F29401C4F20201086820F001000860B5
:1011D000FFF7D0FA0590FFE741F29400C4F2020055
:1011E0000068800700280CD5FFE7FFF7C3FA0599D0
:1011F000401A032804D3FFE703208DF81F003EE2C6
:10120000EAE7FFE7FFE7069800784007002840F18B
:10121000C680FFE700208DF80B0041F25800C4F2B1
:1012200002000068C000002813D4FFE7FFE741F286
:101230005800C4F20200016841F08051016000686A
:1012400000F0805001900198FFE701208DF80B001D
:10125000FFE747F20000C4F200000068C005002864
:1012600022D4FFE747F20001C4F20001086840F40D
:1012700080700860FFF77EFA0590FFE747F20000F4
:10128000C4F200000068C00500280CD4FFE7FFF797
:1012900071FA0599401A032804D3FFE703208DF85B
:1012A0001F00ECE1EAE7FFE7FFE706988068012806
:1012B00009D1FFE741F29001C4F20201086840F051
:1012C000010008601FE00698806805280DD1FFE73F
:1012D00041F29001C4F20201086840F00400086085
:1012E000086840F0010008600CE041F29001C4F28F
:1012F0000201086820F001000860086820F004007E
:101300000860FFE7FFE7FFE706988068E0B1FFE7C6
:10131000FFF730FA0590FFE741F29000C4F20200B7
:101320000068800700280ED4FFE7FFF723FA05992D
:10133000401A41F28931884204D3FFE703208DF837
:101340001F009CE1E8E71BE0FFF714FA0590FFE7B8
:1013500041F29000C4F202000068800700280ED518
:10136000FFE7FFF707FA0599401A41F289318842F1
:1013700004D3FFE703208DF81F0080E1E8E7FFE7D3
:101380009DF80B00012809D1FFE741F25801C4F292
:101390000201086820F080500860FFE7FFE7069828
:1013A00000788006002849D5FFE70698806910B3C9
:1013B000FFE741F29801C4F20201086840F0010021
:1013C0000860FFF7D7F90590FFE741F29800C4F2F3
:1013D00002000068800700280CD4FFE7FFF7CAF975
:1013E0000599401A032804D3FFE703208DF81F0056
:1013F00045E1EAE721E041F29801C4F20201086800
:1014000020F001000860FFF7B5F90590FFE741F211
:101410009800C4F202000068800700280CD5FFE79E
:10142000FFF7A8F90599401A032804D3FFE7032022
:101430008DF81F0023E1EAE7FFE7FFE70698C069A0
:10144000002800F01881FFE741F20800C4F2020012
:10145000006800F00C000C2800F0B480FFE706984C
:10146000C06902287CD1FFE741F20001C4F2020109
:10147000086820F080700860FFF77CF90590FFE7AE
:1014800041F20000C4F202000068800100280CD57F
:10149000FFE7FFF76FF90599401A032804D3FFE728
:1014A00003208DF81F00EAE0EAE741F20C01C4F2E4
:1014B0000201086848F20C02C0F29F121040DDF8E9
:1014C00018C0DCF82020DCF82450DCF828E0DCF838
:1014D0002C306FF00F0404EB0514224342EA0E2275
:1014E000DCF8304040F2000ECFF6E07E0EEA045EFB
:1014F000AEF5001E42EA0E02DCF834E04FF07E4CFE
:101500000CEA0E6C0CF17E4C42EA0C0242EAC36219
:101510001043086041F20002C4F20202106840F079
:1015200080701060086840F080700860FFF722F952
:101530000590FFE741F20000C4F20200006880015C
:1015400000280CD4FFE7FFF715F90599401A032886
:1015500004D3FFE703208DF81F0090E0EAE730E0B6
:1015600041F20001C4F20201086820F080700860B6
:1015700041F20C01C4F20201086820F00300086087
:1015800008684FF6FF72CFF6EE6210400860FFF772
:10159000F1F80590FFE741F20000C4F20200006894
:1015A000800100280CD5FFE7FFF7E4F80599401A01
:1015B000032804D3FFE703208DF81F005FE0EAE76C
:1015C000FFE757E00698C069012804D1FFE7012032
:1015D0008DF81F0053E041F20C00C4F202000068D5
:1015E0000390039800F003000699096A88423BD1F2
:1015F000FFE7039800F0F00006994A6A6FF00F01C8
:1016000001EB021188422FD1FFE7039800F4FE405E
:101610000699896AB0EB012F26D1FFE7039800F005
:1016200078400699C96AB0EBC16F1DD1FFE70398F6
:1016300000F4C00006990A6B0021CFF6E07101EAC0
:101640000251A1F5001188420ED1FFE7039800F086
:10165000C06006994A6B4FF07E4101EA026101F1D8
:101660007E41884204D0FFE701208DF81F0006E08C
:10167000FFE7FFE7FFE700208DF81F00FFE79DF879
:101680001F0008B0B0BD000080B582B00190019885
:1016900000F042F902B080BDFFE7FEE780B582B0FE
:1016A0008DF807009DF807000730012202FA00F0CC
:1016B000ADF80400BDF8041040F60000C4F60000C8
:1016C000FFF742F802B080BD80B592B000201190C3
:1016D00010900F900E900D90FFE741F24C00C4F275
:1016E0000200016841F004010160006800F004009C
:1016F0000C900C98FFE7FFE741F24C00C4F20200A7
:10170000016841F020010160006800F020000B90AA
:101710000B98FFE7FFE741F24C00C4F202000168BA
:1017200041F001010160006800F001000A900A9890
:10173000FFE7FFE741F24C00C4F20200016841F00C
:1017400002010160006800F0020009900998FFE7BB
:10175000FFE741F24C00C4F20200016841F00801C9
:101760000160006800F0080008900898FFE740F664
:101770000000C4F6000002904FF47F410191002266
:101780000592FEF7E1FF059A40F60040C4F600001E
:10179000069004210391FEF7D7FF019A029805995C
:1017A0000D92012204920E920F9110910DA90791B2
:1017B000FEF714FE049A059807990D920E900F906B
:1017C0004FF09040FEF70AFE0598079907220D9208
:1017D0000E900F9040F20040C4F60000FEF7FEFDB0
:1017E000DDF80CC0049B059A06980799CDF834C023
:1017F0000E930F921092FEF7F1FD12B080BD000023
:10180000FFE7FEE7FFE7FEE788B007900691059245
:10181000079800F0070004900498C0F1070005281D
:1018200003D3FFE70420019004E00498C0F107000F
:101830000190FFE70198039004980430062803D82C
:10184000FFE70020009003E0049803380090FFE7D2
:101850000098029006980399012202FA01F10139D9
:101860000840029B984005999A40013A114008436C
:1018700008B070477047000086B041F20C00C4F217
:101880000200016801F0030104910068C1B2012067
:1018900000EB1110029004980090022815D0FFE789
:1018A0000098032812D1FFE7029947F64000C0F2E2
:1018B0007D10B0FBF1F041F20C01C4F202010968A5
:1018C000C1F306214843059011E0FFE7029942F277
:1018D0000040C0F2F400B0FBF1F041F20C01C4F2A0
:1018E00002010968C1F3062148430590FFE741F270
:1018F0000C00C4F20200006800F0C061022000EB9E
:101900001160039005980399B0FBF1F001900198E4
:1019100006B070477047000080B582B00090009814
:101920000138B0F1807F03D3FFE70120019019E077
:10193000009801384EF21401CEF2000108604FF019
:10194000FF300F2100F066F84EF21801CEF20001D0
:10195000002008604EF21002CEF200020721116052
:101960000190FFE7019802B080BD000080B5FEF74E
:1019700007FF80BD80B594B006A800903821FEF71F
:101980009BFC0020059004900390029001904FF47E
:101990000070FEF7A3FF0098022106914FF48072B9
:1019A000099240220A920D910E9101220F920A2271
:1019B0001092119112911391FFF786FA18B1FFE777
:1019C000FEF7E2FCFFE70F200190032002900020C9
:1019D00003900490059001A80221FFF763F818B165
:1019E000FFE7FEF7D1FCFFE714B080BD4EF688514B
:1019F000CEF20001086840F47000086070470000F3
:101A0000FFE7FEE74EF60C50CEF200000068C0F390
:101A10000220704782B08DF8070000919DF9070001
:101A200000280AD4FFE7009800019DF907104EF244
:101A30000042CEF2000288540BE0009800019DF8AD
:101A4000071001F00F014EF61452CEF20002885436
:101A5000FFE702B07047000083B00290029800F0E8
:101A6000070000904EF60C51CEF20001086801907C
:101A700001984FF6FF02104001900198009A40EA49
:101A800002200022C0F2FA5210430190019808602F
:101A900003B0704780B582B0002001908DF803003C
:101AA0008DF80200FEF77AFEFFF764FFFFF70CFEE9
:101AB00040F60040C4F6000004210122FEF744FE77
:101AC000FFE70120FFF7EAFD4FF47A70FEF764FCB0
:101AD000F7E7F1EE100A4FF6FF71C0F2C03120EACD
:101AE000010040F04070E1EE100A70470000000075
:101AF000000000000102030406070809201B00087B
:101B0000000000201000000014020008301B000834
:101B100010000020680600003002000800000000ED
:101B20000024F4000100000010000000000000008C
:04000005080001D915
:00000001FF
